:100000000C942A000C9447000C9447000C94470071
:100010000C9447000C9447000C9447000C94470044
:100020000C9447000C9447000C9447000C94470034
:100030000C9447000C9447000C9447000C94470024
:100040000C9447000C9447000C9447000C94470014
:100050000C94470011241FBECFE5D8E0DEBFCDBF12
:1000600010E0A0E6B0E0E8E0F7E202C005900D92F3
:10007000A63BB107D9F710E0A6EBB0E001C01D9296
:10008000A73BB107E1F70E940D120C9482130C9468
:100090000000EF92FF920F931F937B018C0120E0F1
:1000A00030E040E05FE40E94490388238CF0C801FF
:1000B000B70120E030E040E05FE40E94C1010E940F
:1000C000A9039B01AC01205030404040504806C07D
:1000D000C801B7010E94A9039B01AC01B901CA0183
:1000E0001F910F91FF90EF900895A0E0B0E0EBE733
:1000F000F0E00C944B13DC012B01FA019C9192303F
:1001000008F439C1EB018881823008F433C194309E
:1001100069F4843009F02FC111969C91119789815F
:10012000981709F428C1AEEAB0E025C1843009F47B
:1001300021C18230A9F4923009F01DC19A01AD01AC
:1001400088E0EA010990AE01E90109929E0181501F
:10015000C1F7E201898111969C918923818308C1AD
:10016000923009F407C112962D903C901397EB0141
:100170008A819B811496AD90BD90CD90DC901797AD
:10018000EC80FD800E811F819101281B390BB90184
:1001900037FF04C066277727621B730B6032710537
:1001A0000CF061C0121613066CF537014801062EDB
:1001B00004C096948794779467940A94D2F721E0C8
:1001C00030E040E050E004C0220F331F441F551FB1
:1001D0006A95D2F721503040404050402E213F21B7
:1001E00040235123211531054105510521F021E01E
:1001F00030E040E050E079018A01E628F72808293C
:1002000019293CC0232BD1F1260E371E350146019A
:10021000062E04C096948794779467940A94D2F734
:1002200021E030E040E050E004C0220F331F441FC3
:10023000551F6A95D2F721503040404050402A2146
:100240003B214C215D21211531054105510521F04E
:1002500021E030E040E050E059016A01A628B728CB
:10026000C828D9280BC0821593052CF01C01AA249C
:10027000BB24650103C0EE24FF24870111969C91E5
:10028000D20111968C91981709F445C0992339F041
:10029000A80197012A193B094C095D0906C0A6016E
:1002A00095012E193F09400B510B57FD08C01182D3
:1002B0003382228224833583468357831DC081E0A5
:1002C00081833382228288279927DC01821B930B4A
:1002D000A40BB50B84839583A683B7830DC0220F2F
:1002E000331F441F551F24833583468357838281E0
:1002F000938101979383828324813581468157813D
:10030000DA01C9010197A109B1098F5F9F4FAF4F72
:10031000BF4328F30BC0918333822282EA0CFB1C7B
:100320000C1D1D1DE482F5820683178383E0808304
:10033000248135814681578157FF1AC0C901AA27F8
:1003400097FDA095BA2F81709070A070B0705695EF
:10035000479537952795822B932BA42BB52B848318
:100360009583A683B7838281938101969383828349
:10037000DF0101C0D201CD01CDB7DEB7E2E10C94BF
:100380006713A0E2B0E0E7ECF1E00C945713698347
:100390007A838B839C832D833E834F835887E9E048
:1003A000EE2EF12CEC0EFD1ECE010196B7010E943F
:1003B000D2048E010F5E1F4FCE010596B8010E9438
:1003C000D2048A8991E089278A8BC701B801AE01DE
:1003D000475E5F4F0E9475000E94FD03A096E6E015
:1003E0000C947313A0E2B0E0E8EFF1E00C94571323
:1003F00069837A838B839C832D833E834F835887C5
:10040000F9E0EF2EF12CEC0EFD1ECE010196B701A6
:100410000E94D2048E010F5E1F4FCE010596B801D7
:100420000E94D204C701B801AE01475E5F4F0E942F
:1004300075000E94FD03A096E6E00C947313A0E201
:10044000B0E0E5E2F2E00C944B1369837A838B838E
:100450009C832D833E834F835887CE010196BE0136
:10046000675F7F4F0E94D204CE010596BE016F5E8A
:100470007F4F0E94D2049985923088F0898982301A
:10048000C8F0943019F4823051F404C0843029F457
:10049000923081F48EEA90E0C6C0923049F420E0B8
:1004A0009A858A89981321E02A87CE010996BBC0D4
:1004B000823049F420E09A858A89981321E02A8BBA
:1004C000CE014196B0C02D843E844F8458886D88FB
:1004D0007E888F88988CEE24FF248701AA24BB2471
:1004E000650140E050E060E070E0E0E0F0E0C10174
:1004F00081709070892BE9F0E60CF71C081D191D1E
:100500009A01AB012A0D3B1D4C1D5D1D80E090E062
:10051000A0E0B0E0E614F7040805190520F481E036
:1005200090E0A0E0B0E0BA01A901480F591F6A1F8E
:100530007B1FAA0CBB1CCC1CDD1C97FE08C081E0F5
:1005400090E0A0E0B0E0A82AB92ACA2ADB2A3196B6
:10055000E032F10549F0660C771C881C991C569412
:10056000479437942794C3CFFA85EA892B893C892D
:100570008B859C85280F391F2E5F3F4F17C0CA01FE
:1005800081709070892B61F016950795F794E79428
:1005900080E090E0A0E0B0E8E82AF92A0A2B1B2BC3
:1005A00076956795579547952F5F3F4F77FDE7CF36
:1005B0000CC0440F551F661F771F17FD4160EE0CDE
:1005C000FF1C001F111F21503040403090E05907A0
:1005D00090E0690790E4790760F32B8F3C8FDB0193
:1005E000CA018F779070A070B07080349105A1051A
:1005F000B10561F447FD0AC0E114F10401051105DC
:1006000029F0405C5F4F6F4F7F4F40781A8EFE1786
:1006100011F081E08A8F4D8F5E8F6F8F78A383E01A
:10062000898FCE0149960E94FD03A096E2E10C94C9
:100630006713A8E1B0E0EFE1F3E00C94571369838E
:100640007A838B839C832D833E834F83588789E0F5
:10065000E82EF12CEC0EFD1ECE010196B7010E9492
:10066000D2048E010F5E1F4FCE010596B8010E9485
:10067000D2048985823040F08989823028F0C70110
:10068000B8010E944A0501C08FEF6896E6E00C941D
:100690007313A8E1B0E0EFE4F3E00C94571369831F
:1006A0007A838B839C832D833E834F83588789E095
:1006B000E82EF12CEC0EFD1ECE010196B7010E9432
:1006C000D2048E010F5E1F4FCE010596B8010E9425
:1006D000D2048985823040F08989823028F0C701B0
:1006E000B8010E944A0501C08FEF6896E6E00C94BD
:1006F0007313A8E1B0E0EFE7F3E00C9457136983BC
:100700007A838B839C832D833E834F83588789E034
:10071000E82EF12CEC0EFD1ECE010196B7010E94D1
:10072000D2048E010F5E1F4FCE010596B8010E94C4
:10073000D2048985823040F08989823028F0C7014F
:10074000B8010E944A0501C081E06896E6E00C9479
:100750007313ACE0B0E0EFEAF3E00C945B13698351
:100760007A838B839C83CE010196BE016B5F7F4FA2
:100770000E94D2048D81823061F1823050F1843048
:1007800021F48E81882351F12EC02F81388537FDC9
:1007900020C06E812F3131051CF06623F9F023C093
:1007A0008EE190E0821B930B29853A854B855C8511
:1007B00004C056954795379527958A95D2F76623B5
:1007C000B1F050954095309521953F4F4F4F5F4F79
:1007D0000EC020E030E040E050E009C02FEF3FEFD6
:1007E0004FEF5FE704C020E030E040E050E8B9019F
:1007F000CA012C96E2E00C947713DF92EF92FF92FD
:100800000F931F93FC01E480F58006811781D1804E
:100810008081823048F480E090E0A0E1B0E0E82AF6
:10082000F92A0A2B1B2BA5C0843009F49FC0823003
:1008300021F4EE24FF24870105C0E114F104010531
:10084000110519F4E0E0F0E096C0628173819FEF3A
:10085000623879070CF05BC022E83FEF261B370BAC
:100860002A3131052CF020E030E040E050E02AC091
:10087000B801A701022E04C0769567955795479554
:100880000A94D2F781E090E0A0E0B0E004C0880FC5
:10089000991FAA1FBB1F2A95D2F70197A109B10979
:1008A0008E219F21A023B1230097A105B10521F03E
:1008B00081E090E0A0E0B0E09A01AB01282B392B59
:1008C0004A2B5B2BDA01C9018F779070A070B07052
:1008D00080349105A105B10539F427FF09C0205CDA
:1008E0003F4F4F4F5F4F04C0215C3F4F4F4F5F4F13
:1008F000E0E0F0E02030A0E03A07A0E04A07A0E402
:100900005A0710F0E1E0F0E079018A0127C0603871
:10091000710564F5FB01E158FF4FD801C7018F77DE
:100920009070A070B07080349105A105B10539F4C4
:10093000E7FE0DC080E490E0A0E0B0E004C08FE3EB
:1009400090E0A0E0B0E0E80EF91E0A1F1B1F17FFA1
:1009500005C016950795F794E794319687E01695AC
:100960000795F794E7948A95D1F705C0EE24FF2404
:100970008701EFEFF0E06E2F679566276795902F60
:100980009F77D794DD24D7948E2F8695492F462BB9
:10099000582F5D29B701CA011F910F91FF90EF9069
:1009A000DF900895FC01DB01408151812281622F9B
:1009B0006F7770E0221F2227221F9381892F880FD3
:1009C000822B282F30E0991F9927991F11969C930D
:1009D000119721153105A9F54115510561057105DD
:1009E00011F482E037C082E89FEF13969C938E93B8
:1009F00012979A01AB0167E0220F331F441F551F66
:100A00006A95D1F783E08C930DC0220F331F441FEA
:100A1000551F12968D919C911397019713969C9355
:100A20008E931297203080E0380780E0480780E4FA
:100A3000580758F314962D933D934D935C93179755
:100A400008952F3F310579F4411551056105710570
:100A500019F484E08C93089564FF03C081E08C93C3
:100A600012C01C9210C02F57304013963C932E9307
:100A7000129783E08C9387E0440F551F661F771F02
:100A80008A95D1F7706414964D935D936D937C9322
:100A9000179708951F93DC01FB019C91923008F495
:100AA00047C08081823008F443C0943051F41196DD
:100AB0001C91843099F58181682F70E0611B710968
:100AC0003FC0843021F0923031F48230B9F181811D
:100AD000882389F12DC011961C9111978230F1F075
:100AE00081811817D9F412962D913C911397828128
:100AF00093818217930794F028173907BCF0149656
:100B00008D919D910D90BC91A02D248135814681C0
:100B10005781281739074A075B0718F4112341F05A
:100B20000AC082179307A407B50740F4112319F0F0
:100B300061E070E005C06FEF7FEF02C060E070E041
:100B4000CB011F910895DF93CF93CDB7DEB7AAE213
:100B5000B0E0EAE2F0E0808188608C93AAE2B0E045
:100B6000EAE2F0E0808180618C93A0E4B0E0E0E410
:100B7000F0E080818F7B8C93A0E4B0E0E0E4F0E0D3
:100B8000808180688C93E0E4F0E086E08083E0E49C
:100B9000F0E01082A0E4B0E0E0E4F0E080818F7744
:100BA0008C93E0E4F0E01082E9E2F0E083E38083FC
:100BB000CF91DF910895DF93CF930F92CDB7DEB73A
:100BC0008983EBE2F0E08081829586958770882F9B
:100BD00090E0817090700097A1F3ECE2F0E08981E1
:100BE00080830F90CF91DF910895DF93CF930F9281
:100BF000CDB7DEB7EBE2F0E080818823DCF7ECE2F2
:100C0000F0E08081898389810F90CF91DF910895F1
:100C1000DF93CF9300D000D000D0CDB7DEB79E8356
:100C20008D8319821A821B821C8215C029813A8108
:100C30008D819E81FC01E20FF31F80810E94DB0504
:100C400089819A81AB81BC810196A11DB11D8983E7
:100C50009A83AB83BC8329813A818D819E81FC017B
:100C6000E20FF31F8081882309F726960FB6F894C8
:100C7000DEBF0FBECDBFCF91DF910895DF93CF933D
:100C8000CDB7DEB72E970FB6F894DEBF0FBECDBF3F
:100C90008A836B834C8381E089838B81883008F061
:100CA000BCC18A81282F30E03E872D878D859E85A7
:100CB0008130910509F47DC02D853E8522303105B6
:100CC0002CF48D859E85009771F0A5C12D853E85FC
:100CD0002230310509F4D3C08D859E85833091057E
:100CE00009F433C198C18C81282F30E03C872B87D1
:100CF0008B859C858130910551F02B853C85223078
:100D0000310571F18B859C850097A9F050C0AAE34D
:100D1000B0E0EAE3F0E08081482F8B81282F30E0BB
:100D200081E090E0022E02C0880F991F0A94E2F73A
:100D3000842B8C9373C1AAE3B0E0EAE3F0E08081F6
:100D4000482F8B81282F30E081E090E0022E02C0F6
:100D5000880F991F0A94E2F7809584238C935EC1D3
:100D6000AAE3B0E0EAE3F0E08081482F8B81282FEE
:100D700030E081E090E002C0880F991F2A95E2F7E9
:100D8000809584238C93ABE3B0E0EBE3F0E08081CB
:100D9000482F8B81282F30E081E090E0022E02C0A6
:100DA000880F991F0A94E2F7842B8C9337C119821C
:100DB00035C18C81282F30E03A87298789859A852B
:100DC0008130910551F029853A852230310571F144
:100DD00089859A850097A9F050C0A7E3B0E0E7E3C2
:100DE000F0E08081482F8B81282F30E081E090E077
:100DF000022E02C0880F991F0A94E2F7842B8C936D
:100E00000DC1A7E3B0E0E7E3F0E08081482F8B81DC
:100E1000282F30E081E090E0022E02C0880F991F59
:100E20000A94E2F7809584238C93F8C0A7E3B0E09E
:100E3000E7E3F0E08081482F8B81282F30E081E0CC
:100E400090E002C0880F991F2A95E2F780958423CD
:100E50008C93A8E3B0E0E8E3F0E08081482F8B8139
:100E6000282F30E081E090E0022E02C0880F991F09
:100E70000A94E2F7842B8C93D1C01982CFC08C8165
:100E8000282F30E038872F838F8198858130910516
:100E900051F02F8138852230310571F18F8198858D
:100EA0000097A9F050C0A4E3B0E0E4E3F0E0808153
:100EB000482F8B81282F30E081E090E0022E02C085
:100EC000880F991F0A94E2F7842B8C93A7C0A4E3A0
:100ED000B0E0E4E3F0E08081482F8B81282F30E000
:100EE00081E090E0022E02C0880F991F0A94E2F779
:100EF000809584238C9392C0A4E3B0E0E4E3F0E017
:100F00008081482F8B81282F30E081E090E002C063
:100F1000880F991F2A95E2F7809584238C93A5E387
:100F2000B0E0E5E3F0E08081482F8B81282F30E0AE
:100F300081E090E0022E02C0880F991F0A94E2F728
:100F4000842B8C936BC0198269C08C81282F30E070
:100F50003E832D838D819E818130910551F02D81BD
:100F60003E812230310571F18D819E810097A9F07B
:100F700050C0A1E3B0E0E1E3F0E08081482F8B8135
:100F8000282F30E081E090E0022E02C0880F991FE8
:100F90000A94E2F7842B8C9341C0A1E3B0E0E1E333
:100FA000F0E08081482F8B81282F30E081E090E0B5
:100FB000022E02C0880F991F0A94E2F780958423BD
:100FC0008C932CC0A1E3B0E0E1E3F0E08081482FF6
:100FD0008B81282F30E081E090E002C0880F991FBC
:100FE0002A95E2F7809584238C93A2E3B0E0E2E3B4
:100FF000F0E08081482F8B81282F30E081E090E065
:10100000022E02C0880F991F0A94E2F7842B8C935A
:1010100005C0198203C0198201C0198289812E96E8
:101020000FB6F894DEBF0FBECDBFCF91DF9108950C
:10103000DF93CF9300D000D000D0CDB7DEB78A8346
:101040006B834C8381E089838B81883008F0E8C012
:101050008A81282F30E03E832D838D819E818130CF
:10106000910509F448C02D813E81223031052CF4D0
:101070008D819E81009771F0D1C02D813E812230FB
:10108000310509F469C08D819E818330910509F491
:1010900094C0C4C08C818130A1F4ABE3B0E0EBE339
:1010A000F0E08081482F8B81282F30E081E090E0B4
:1010B000022E02C0880F991F0A94E2F7842B8C93AA
:1010C000B0C08C818823A9F4ABE3B0E0EBE3F0E09F
:1010D0008081482F8B81282F30E081E090E0022E24
:1010E00002C0880F991F0A94E2F7809584238C939D
:1010F00098C0198296C08C818130A1F4A8E3B0E039
:10110000E8E3F0E08081482F8B81282F30E081E0F8
:1011100090E0022E02C0880F991F0A94E2F7842BF8
:101120008C937FC08C818823A9F4A8E3B0E0E8E326
:10113000F0E08081482F8B81282F30E081E090E023
:10114000022E02C0880F991F0A94E2F7809584232B
:101150008C9367C0198265C08C818130A1F4A5E3AE
:10116000B0E0E5E3F0E08081482F8B81282F30E06C
:1011700081E090E0022E02C0880F991F0A94E2F7E6
:10118000842B8C934EC08C818823A9F4A5E3B0E016
:10119000E5E3F0E08081482F8B81282F30E081E06B
:1011A00090E0022E02C0880F991F0A94E2F7809502
:1011B00084238C9336C0198234C08C818130A1F491
:1011C000A2E3B0E0E2E3F0E08081482F8B81282F9A
:1011D00030E081E090E0022E02C0880F991F0A944F
:1011E000E2F7842B8C931DC08C818823A9F4A2E3A1
:1011F000B0E0E2E3F0E08081482F8B81282F30E0DF
:1012000081E090E0022E02C0880F991F0A94E2F755
:10121000809584238C9305C0198203C0198201C074
:101220001982898126960FB6F894DEBF0FBECDBF16
:10123000CF91DF910895DF93CF93CDB7DEB7279796
:101240000FB6F894DEBF0FBECDBF8A836B835D837C
:101250004C8381E089838B81883008F078C08C8151
:101260009D81009709F473C08A81282F30E03F8365
:101270002E834E815F814130510559F18E819F81CE
:101280008230910534F42E813F812115310569F0BA
:101290005CC04E815F814230510579F18E819F8122
:1012A0008330910509F43DC050C0E9E3F0E080814E
:1012B000282F30E08B81882F90E0A90102C055953E
:1012C00047958A95E2F7CA018170EC81FD818083A0
:1012D0003FC0E6E3F0E08081282F30E08B81882F4B
:1012E00090E0A90102C0559547958A95E2F7CA0199
:1012F0008170EC81FD8180832BC0E3E3F0E080818D
:10130000282F30E08B81882F90E0A90102C05595ED
:1013100047958A95E2F7CA018170EC81FD8180834F
:1013200017C0E0E3F0E08081282F30E08B81882F28
:1013300090E0A90102C0559547958A95E2F7CA0148
:101340008170EC81FD81808303C0198201C0198204
:10135000898127960FB6F894DEBF0FBECDBFCF911F
:10136000DF910895DF93CF9300D000D00F92CDB7D7
:10137000DEB78A836B8381E089838B81883008F0B4
:1013800071C08A81282F30E03D832C838C819D8120
:101390008130910549F12C813D81223031052CF4B9
:1013A0008C819D81009761F05BC02C813D81223052
:1013B000310571F18C819D8183309105E9F150C037
:1013C000ABE3B0E0EBE3F0E08081482F8B81282F86
:1013D00030E081E090E0022E02C0880F991F0A944D
:1013E000E2F784278C933FC0A8E3B0E0E8E3F0E0A5
:1013F0008081482F8B81282F30E081E090E0022E01
:1014000002C0880F991F0A94E2F784278C932BC09F
:10141000A5E3B0E0E5E3F0E08081482F8B81282F41
:1014200030E081E090E0022E02C0880F991F0A94FC
:10143000E2F784278C9317C0A2E3B0E0E2E3F0E088
:101440008081482F8B81282F30E081E090E0022EB0
:1014500002C0880F991F0A94E2F784278C9303C077
:10146000198201C0198289810F900F900F900F90FF
:101470000F90CF91DF910895DF93CF93CDB7DEB773
:101480002D970FB6F894DEBF0FBECDBF8A836B8356
:1014900081E089838A81282F30E03D872C878C85E5
:1014A0009D858130910509F43EC02C853D85223013
:1014B00031052CF48C859D85009771F0A9C02C8591
:1014C0003D852230310509F455C08C859D858330DA
:1014D000910509F476C09CC08B81282F30E03B87B2
:1014E0002A878A859B858130910551F02A853B8525
:1014F0002230310571F08A859B85009731F011C04B
:10150000EAE3F0E08FEF808384C0EAE3F0E010824A
:1015100080C0EAE3F0E01082EBE3F0E08FEF80833D
:1015200078C0198276C08B81282F30E039872887D0
:10153000888599858130910551F02885398522303B
:10154000310571F088859985009731F011C0E7E386
:10155000F0E08FEF80835DC0E7E3F0E0108259C0D8
:10156000E7E3F0E01082E8E3F0E08FEF808351C022
:1015700019824FC08B81282F30E03F832E838E81CC
:101580009F818130910551F02E813F8122303105BC
:1015900071F08E819F81009731F011C0E4E3F0E09B
:1015A0008FEF808336C0E4E3F0E0108232C0E4E3E2
:1015B000F0E01082E5E3F0E08FEF80832AC019822B
:1015C00028C08B81282F30E03D832C838C819D8126
:1015D0008130910551F02C813D812230310571F02F
:1015E0008C819D81009731F011C0E1E3F0E08FEF35
:1015F00080830FC0E1E3F0E010820BC0E1E3F0E094
:101600001082E2E3F0E08FEF808303C0198201C013
:10161000198289812D960FB6F894DEBF0FBECDBF1B
:10162000CF91DF910895DF93CF9300D000D00F9238
:10163000CDB7DEB78A836B8381E089838A81282FC7
:1016400030E03D832C838C819D8181309105D1F0E8
:101650002C813D81223031052CF48C819D810097B5
:1016600061F01FC02C813D812230310581F08C81D9
:101670009D818330910581F014C0EBE3F0E08B8114
:10168000808310C0E8E3F0E08B8180830BC0E5E34A
:10169000F0E08B81808306C0E2E3F0E08B81808301
:1016A00001C0198289810F900F900F900F900F90B9
:1016B000CF91DF910895DF93CF9300D000D000D079
:1016C000CDB7DEB78A837C836B8381E089838B818E
:1016D0009C810097E9F18A81282F30E03E832D8399
:1016E0008D819E8181309105E1F02D813E812230F6
:1016F00031052CF48D819E81009761F027C02D81EA
:101700003E8122303105A1F08D819E81833091058B
:10171000B1F01CC0E9E3F0E08081EB81FC818083C3
:1017200018C0E6E3F0E08081EB81FC81808311C08A
:10173000E3E3F0E08081EB81FC8180830AC0E0E399
:10174000F0E08081EB81FC81808303C0198201C0BD
:101750001982898126960FB6F894DEBF0FBECDBFE1
:10176000CF91DF910895DF93CF93CDB7DEB780E0BF
:1017700066E041E00E943E0680E067E041E00E94B2
:101780003E06CF91DF910895DF93CF93CDB7DEB7BB
:101790002E970FB6F894DEBF0FBECDBF8091B60076
:1017A000882309F089C081E08093B60080E066E07C
:1017B00041E00E94180880E067E040E00E941808BD
:1017C00080E090E0AAE7B4E48B879C87AD87BE8772
:1017D0006B857C858D859E8520E030E04AEF54E462
:1017E0000E941F02DC01CB018F839887A987BA87EB
:1017F0006F81788589859A8520E030E040E85FE355
:101800000E94790388232CF481E090E09E838D83ED
:101810003FC06F81788589859A8520E03FEF4FE74B
:1018200057E40E94190318164CF56B857C858D854D
:101830009E8520E030E040E251E40E941F02DC017E
:10184000CB01BC01CD010E944900DC01CB019E838C
:101850008D830FC088EC90E09C838B838B819C816F
:101860000197F1F79C838B838D819E8101979E83E5
:101870008D838D819E81009769F714C06F81788573
:1018800089859A850E944900DC01CB019E838D8366
:101890008D819E819A83898389819A810197F1F74D
:1018A0009A83898380E066E040E00E94180880E027
:1018B00067E040E00E9418082E960FB6F894DEBF4D
:1018C0000FBECDBFCF91DF910895DF93CF93CDB7FA
:1018D000DEB72E970FB6F894DEBF0FBECDBF809156
:1018E000B600813009F088C01092B60080E067E051
:1018F00041E00E94180880E066E040E00E9418087D
:1019000080E090E0AAE7B4E48B879C87AD87BE8730
:101910006B857C858D859E8520E030E04AEF54E420
:101920000E941F02DC01CB018F839887A987BA87A9
:101930006F81788589859A8520E030E040E85FE313
:101940000E94790388232CF481E090E09E838D83AC
:101950003FC06F81788589859A8520E03FEF4FE70A
:1019600057E40E94190318164CF56B857C858D850C
:101970009E8520E030E040E251E40E941F02DC013D
:10198000CB01BC01CD010E944900DC01CB019E834B
:101990008D830FC088EC90E09C838B838B819C812E
:1019A0000197F1F79C838B838D819E8101979E83A4
:1019B0008D838D819E81009769F714C06F81788532
:1019C00089859A850E944900DC01CB019E838D8325
:1019D0008D819E819A83898389819A810197F1F70C
:1019E0009A83898380E066E040E00E94180880E0E6
:1019F00067E040E00E9418082E960FB6F894DEBF0C
:101A00000FBECDBFCF91DF910895DF93CF9300D06C
:101A1000CDB7DEB789836A8389816A8141E00E94FC
:101A20003E060F900F90CF91DF910895DF93CF93F3
:101A300000D0CDB7DEB789836A8389816A8141E0AE
:101A40000E9418080F900F90CF91DF910895DF93B7
:101A5000CF9300D0CDB7DEB789836A8389816A814D
:101A600040E00E9418080F900F90CF91DF910895E9
:101A7000DF93CF9300D0CDB7DEB789836A838981A6
:101A80006A810E94B2090F900F90CF91DF91089563
:101A90000F931F93DF93CF93CDB7DEB7C654D040DB
:101AA0000FB6F894DEBF0FBECDBF82E061E00E94AA
:101AB0003C0A83E067E041E00E943E0683E066E086
:101AC00041E00E943E0683E065E041E00E943E0660
:101AD000FE01ED5BFF4F80E090E0A0EFB1E480837A
:101AE0009183A283B3838E01015C1F4FFE01ED5BE6
:101AF000FF4F608171818281938120E030E04AEF65
:101B000054E40E941F02DC01CB01F8018083918321
:101B1000A283B383FE01FF966081718182819381EC
:101B200020E030E040E85FE30E94790388232CF452
:101B300081E090E09EAF8DAF46C0FE01FF966081D0
:101B400071818281938120E03FEF4FE757E40E944B
:101B50001903181664F5FE01ED5BFF4F608171817A
:101B60008281938120E030E040E251E40E941F0234
:101B7000DC01CB01BC01CD010E944900DC01CB019D
:101B80009EAF8DAF0FC088EC90E09CAF8BAF8BAD5C
:101B90009CAD0197F1F79CAF8BAF8DAD9EAD0197DA
:101BA0009EAF8DAF8DAD9EAD009769F716C0FE015B
:101BB000FF9660817181828193810E944900DC01DE
:101BC000CB019EAF8DAF8DAD9EAD9AAF89AF89AD84
:101BD0009AAD0197F1F79AAF89AF88E30E94CD0FD4
:101BE00080E090E0A0E0B0E48DAB9EABAFABB8AFCF
:101BF0006DA97EA98FA998AD20E030E04AEF54E4AA
:101C00000E941F02DC01CB0189AB9AABABABBCAB32
:101C100069A97AA98BA99CA920E030E040E85FE39C
:101C20000E94790388232CF481E090E098AB8FA781
:101C30003FC069A97AA98BA99CA920E03FEF4FE793
:101C400057E40E94190318164CF56DA97EA98FA9B7
:101C500098AD20E030E040E251E40E941F02DC0138
:101C6000CB01BC01CD010E944900DC01CB0198AB46
:101C70008FA70FC088EC90E09EA78DA78DA59EA58D
:101C80000197F1F79EA78DA78FA598A9019798AB0B
:101C90008FA78FA598A9009769F714C069A97AA999
:101CA0008BA99CA90E944900DC01CB0198AB8FA7AE
:101CB0008FA598A99CA78BA78BA59CA50197F1F749
:101CC0009CA78BA78CE00E94CD0F80E090E0A0E065
:101CD000B0E48FA398A7A9A7BAA76FA178A589A5F3
:101CE0009AA520E030E04AEF54E40E941F02DC0194
:101CF000CB018BA39CA3ADA3BEA36BA17CA18DA1A3
:101D00009EA120E030E040E85FE30E947903882351
:101D10002CF481E090E09AA389A33FC06BA17CA141
:101D20008DA19EA120E03FEF4FE757E40E941903E9
:101D300018164CF56FA178A589A59AA520E030E08A
:101D400040E251E40E941F02DC01CB01BC01CD0145
:101D50000E944900DC01CB019AA389A30FC088EC43
:101D600090E098A38F8F8F8D98A10197F1F798A39A
:101D70008F8F89A19AA101979AA389A389A19AA17A
:101D8000009769F714C06BA17CA18DA19EA10E9450
:101D90004900DC01CB019AA389A389A19AA19E8F56
:101DA0008D8F8D8D9E8D0197F1F79E8F8D8F81E0A8
:101DB0000E94CD0F80E090E0A0E0B0E4898F9A8F80
:101DC000AB8FBC8F698D7A8D8B8D9C8D20E030E040
:101DD0004AEF54E40E941F02DC01CB018D8B9E8BE5
:101DE000AF8BB88F6D897E898F89988D20E030E028
:101DF00040E85FE30E94790388232CF481E090E0BF
:101E00009C8B8B8B3FC06D897E898F89988D20E05C
:101E10003FEF4FE757E40E94190318164CF5698D00
:101E20007A8D8B8D9C8D20E030E040E251E40E9461
:101E30001F02DC01CB01BC01CD010E944900DC0185
:101E4000CB019C8B8B8B0FC088EC90E09A8B898B9D
:101E500089899A890197F1F79A8B898B8B899C895B
:101E600001979C8B8B8B8B899C89009769F714C099
:101E70006D897E898F89988D0E944900DC01CB0194
:101E80009C8B8B8B8B899C89988B8F878F8598896E
:101E90000197F1F7988B8F8786E00E94CD0F80E045
:101EA00090E0A0E0B0E48B879C87AD87BE876B8510
:101EB0007C858D859E8520E030E04AEF54E40E94C9
:101EC0001F02DC01CB018F839887A987BA876F81B6
:101ED000788589859A8520E030E040E85FE30E94BC
:101EE000790388232CF481E090E09E838D833FC0AA
:101EF0006F81788589859A8520E03FEF4FE757E429
:101F00000E94190318164CF56B857C858D859E857E
:101F100020E030E040E251E40E941F02DC01CB01EE
:101F2000BC01CD010E944900DC01CB019E838D8361
:101F30000FC088EC90E09C838B838B819C81019700
:101F4000F1F79C838B838D819E8101979E838D8386
:101F50008D819E81009769F714C06F81788589858E
:101F60009A850E944900DC01CB019E838D838D817F
:101F70009E819A83898389819A810197F1F79A8357
:101F80008983CA5BDF4F0FB6F894DEBF0FBECDBFAB
:101F9000CF91DF911F910F910895DF93CF93CDB72C
:101FA000DEB72F970FB6F894DEBF0FBECDBF8F8779
:101FB00083E067E040E00E94180883E066E040E0CC
:101FC0000E94180882E06F850E94130B83E065E091
:101FD00041E00E94180880E090E0A0EAB0E48B871E
:101FE0009C87AD87BE876B857C858D859E8520E02F
:101FF00030E04AEF54E40E941F02DC01CB018F83E2
:102000009887A987BA876F81788589859A8520E026
:1020100030E040E85FE30E94790388232CF481E0FC
:1020200090E09E838D833FC06F81788589859A85F6
:1020300020E03FEF4FE757E40E94190318164CF5D4
:102040006B857C858D859E8520E030E040E251E403
:102050000E941F02DC01CB01BC01CD010E9449009E
:10206000DC01CB019E838D830FC088EC90E09C83C4
:102070008B838B819C810197F1F79C838B838D816E
:102080009E8101979E838D838D819E81009769F744
:1020900014C06F81788589859A850E944900DC018A
:1020A000CB019E838D838D819E819A8389838981D3
:1020B0009A810197F1F79A83898383E065E040E094
:1020C0000E9418082F960FB6F894DEBF0FBECDBF42
:1020D000CF91DF910895DF93CF93CDB7DEB72F97E0
:1020E0000FB6F894DEBF0FBECDBF8F8783E067E0E9
:1020F00041E00E94180883E066E040E00E94180872
:1021000082E06F850E94130B83E065E041E00E944E
:10211000180880E090E0A0EAB0E48B879C87AD8748
:10212000BE876B857C858D859E8520E030E04AEFFB
:1021300054E40E941F02DC01CB018F839887A9879A
:10214000BA876F81788589859A8520E030E040E8FC
:102150005FE30E94790388232CF481E090E09E8362
:102160008D833FC06F81788589859A8520E03FEF18
:102170004FE757E40E94190318164CF56B857C85D0
:102180008D859E8520E030E040E251E40E941F02F0
:10219000DC01CB01BC01CD010E944900DC01CB0177
:1021A0009E838D830FC088EC90E09C838B838B8112
:1021B0009C810197F1F79C838B838D819E81019790
:1021C0009E838D838D819E81009769F714C06F81F6
:1021D000788589859A850E944900DC01CB019E8320
:1021E0008D838D819E819A83898389819A810197CC
:1021F000F1F79A83898383E065E040E00E94180844
:102200002F960FB6F894DEBF0FBECDBFCF91DF91F2
:102210000895DF93CF9300D00F92CDB7DEB79B83A5
:102220008A8319820EC08981282F30E08A819B81A0
:10223000FC01E20FF31F80810E946B1089818F5F88
:1022400089838981282F30E08A819B81FC01E20FFC
:10225000F31F8081882339F70F900F900F90CF9153
:10226000DF9108950F931F93DF93CF93CDB7DEB720
:1022700060970FB6F894DEBF0FBECDBF6D877E8727
:102280008F87988B1A822DC08A81082F10E08D8548
:102290009E85AF85B8892AE030E040E050E0BC017F
:1022A000CD010E942913DC01CB01282FCE0103961A
:1022B000FC01E00FF11F20838A818F5F8A838D8567
:1022C0009E85AF85B8892AE030E040E050E0BC014F
:1022D000CD010E942913DA01C9018D879E87AF873E
:1022E000B88B8D859E85AF85B8890097A105B1050E
:1022F00059F68A81815089838981282F30E0CE0167
:102300000396FC01E20FF31F8081805D0E946B1039
:102310008981882321F0898181508983EDCF60965E
:102320000FB6F894DEBF0FBECDBFCF91DF911F91E6
:102330000F910895DF93CF93CDB7DEB781E00E9470
:10234000CD0FCF91DF910895DF93CF9300D000D0D0
:10235000CDB7DEB789836A838A818031C0F48981F1
:10236000282F30E03C832B838B819C81009731F0B8
:102370002B813C812130310531F009C08A818058A0
:102380000E94CD0F04C08A8180540E94CD0F0F900F
:102390000F900F900F90CF91DF910895DF93CF931F
:1023A00000D000D0CDB7DEB79B838A836C838C814D
:1023B000882F90E00896880F991F880F991F880F23
:1023C000991F0E94CD0F19820EC08981282F30E0FD
:1023D0008A819B81FC01E20FF31F80810E946B10B8
:1023E00089818F5F89838981873078F380E80E94B3
:1023F000CD0F0F900F900F900F90CF91DF91089518
:10240000DF93CF930F92CDB7DEB7898389810E9486
:102410006B100F90CF91DF910895DF93CF930F92C0
:10242000CDB7DEB780E060E00E94050D80E061E09E
:102430000E94050D80E062E00E94050D0E94480D9B
:102440000E94B30B0E94A30581E060E00E94F0129D
:102450000E94D7120E94F505898389810E94DB05BD
:102460008981813309F078C00E949A1180E060E090
:102470000E94A41180E690E00E9409110E94F505D7
:10248000898389810E94DB058981813389F50E94D6
:102490009A1180E060E00E94A4118BE690E00E9417
:1024A000091181E063E00E94A41189E790E00E9495
:1024B00009110E94F505898389810E94DB058981C4
:1024C000813329F480E060E00E94160D6DC089819F
:1024D000823329F480E061E00E94160D65C0898195
:1024E000833309F061C080E062E00E94160D5CC099
:1024F0008981823309F058C00E949A1180E060E01F
:102500000E94A4118BE690E00E94091181E063E033
:102510000E94A41189E790E00E9409110E94F5052C
:10252000898389810E94DB058981813329F480E0D8
:1025300060E00E94270D38C08981823329F480E051
:1025400061E00E94270D30C08981833369F580E006
:1025500062E00E94270D28C08981823329F50E94FC
:102560009A1180E060E00E94A41180E890E00E944F
:1025700009110E94F505898389810E94DB05898103
:10258000813341F481E060E041E00E9415130E9434
:10259000C40B0AC08981823339F481E060E040E0F5
:1025A0000E9415130E94650C0E94D71253CFDF932F
:1025B000CF93CDB7DEB70E949A1180E060E00E9411
:1025C000A4118FE890E00E94091181E060E00E9470
:1025D000A4118CE990E00E940911CF91DF91089538
:1025E000DF93CF9300D0CDB7DEB789836A8389812B
:1025F0006A8141E00E943E060F900F90CF91DF91DB
:102600000895DF93CF9300D00F92CDB7DEB78983C3
:102610006A834B8389816A814B810E9418080F90DD
:102620000F900F90CF91DF910895DF93CF9300D05B
:102630000F92CDB7DEB789836A834B8389816A8124
:102640004B810E9418080F900F900F90CF91DF914F
:102650000895A1E21A2EAA1BBB1BFD010DC0AA1FE3
:10266000BB1FEE1FFF1FA217B307E407F50720F0FB
:10267000A21BB30BE40BF50B661F771F881F991F76
:102680001A9469F760957095809590959B01AC01BF
:10269000BD01CF0108952F923F924F925F926F92AA
:1026A0007F928F929F92AF92BF92CF92DF92EF92E2
:1026B000FF920F931F93CF93DF93CDB7DEB7CA1B63
:1026C000DB0B0FB6F894DEBF0FBECDBF09942A888E
:1026D000398848885F846E847D848C849B84AA8436
:1026E000B984C884DF80EE80FD800C811B81AA81C3
:1026F000B981CE0FD11D0FB6F894DEBF0FBECDBF8E
:08270000ED010895F894FFCFEC
:10270800312D4F4E20322D4F464600312D4C454439
:102718003120322D4C45443200332D4C4544330092
:10272800312D4F70656E20322D436C6F736500310B
:102738002D4C4544204F4E2F4F464600322D4F70AA
:10274800656E2F436C6F736520446F6F72000000D5
:062758000000000000007B
:00000001FF
